{"abi":[{"type":"constructor","inputs":[],"stateMutability":"nonpayable"},{"type":"function","name":"acceptOwnership","inputs":[],"outputs":[],"stateMutability":"nonpayable"},{"type":"function","name":"addForwarder","inputs":[{"name":"forwarder","type":"address","internalType":"address"}],"outputs":[],"stateMutability":"nonpayable"},{"type":"function","name":"getTransmissionId","inputs":[{"name":"receiver","type":"address","internalType":"address"},{"name":"workflowExecutionId","type":"bytes32","internalType":"bytes32"},{"name":"reportId","type":"bytes2","internalType":"bytes2"}],"outputs":[{"name":"","type":"bytes32","internalType":"bytes32"}],"stateMutability":"pure"},{"type":"function","name":"getTransmissionInfo","inputs":[{"name":"receiver","type":"address","internalType":"address"},{"name":"workflowExecutionId","type":"bytes32","internalType":"bytes32"},{"name":"reportId","type":"bytes2","internalType":"bytes2"}],"outputs":[{"name":"","type":"tuple","internalType":"struct IRouter.TransmissionInfo","components":[{"name":"transmissionId","type":"bytes32","internalType":"bytes32"},{"name":"state","type":"uint8","internalType":"enum IRouter.TransmissionState"},{"name":"transmitter","type":"address","internalType":"address"},{"name":"invalidReceiver","type":"bool","internalType":"bool"},{"name":"success","type":"bool","internalType":"bool"},{"name":"gasLimit","type":"uint80","internalType":"uint80"}]}],"stateMutability":"view"},{"type":"function","name":"getTransmitter","inputs":[{"name":"receiver","type":"address","internalType":"address"},{"name":"workflowExecutionId","type":"bytes32","internalType":"bytes32"},{"name":"reportId","type":"bytes2","internalType":"bytes2"}],"outputs":[{"name":"","type":"address","internalType":"address"}],"stateMutability":"view"},{"type":"function","name":"isForwarder","inputs":[{"name":"forwarder","type":"address","internalType":"address"}],"outputs":[{"name":"","type":"bool","internalType":"bool"}],"stateMutability":"view"},{"type":"function","name":"owner","inputs":[],"outputs":[{"name":"","type":"address","internalType":"address"}],"stateMutability":"view"},{"type":"function","name":"removeForwarder","inputs":[{"name":"forwarder","type":"address","internalType":"address"}],"outputs":[],"stateMutability":"nonpayable"},{"type":"function","name":"report","inputs":[{"name":"receiver","type":"address","internalType":"address"},{"name":"rawReport","type":"bytes","internalType":"bytes"},{"name":"","type":"bytes","internalType":"bytes"},{"name":"","type":"bytes[]","internalType":"bytes[]"}],"outputs":[],"stateMutability":"nonpayable"},{"type":"function","name":"route","inputs":[{"name":"transmissionId","type":"bytes32","internalType":"bytes32"},{"name":"transmitter","type":"address","internalType":"address"},{"name":"receiver","type":"address","internalType":"address"},{"name":"metadata","type":"bytes","internalType":"bytes"},{"name":"validatedReport","type":"bytes","internalType":"bytes"}],"outputs":[{"name":"","type":"bool","internalType":"bool"}],"stateMutability":"nonpayable"},{"type":"function","name":"transferOwnership","inputs":[{"name":"to","type":"address","internalType":"address"}],"outputs":[],"stateMutability":"nonpayable"},{"type":"function","name":"typeAndVersion","inputs":[],"outputs":[{"name":"","type":"string","internalType":"string"}],"stateMutability":"view"},{"type":"event","name":"ForwarderAdded","inputs":[{"name":"forwarder","type":"address","indexed":true,"internalType":"address"}],"anonymous":false},{"type":"event","name":"ForwarderRemoved","inputs":[{"name":"forwarder","type":"address","indexed":true,"internalType":"address"}],"anonymous":false},{"type":"event","name":"OwnershipTransferRequested","inputs":[{"name":"from","type":"address","indexed":true,"internalType":"address"},{"name":"to","type":"address","indexed":true,"internalType":"address"}],"anonymous":false},{"type":"event","name":"OwnershipTransferred","inputs":[{"name":"from","type":"address","indexed":true,"internalType":"address"},{"name":"to","type":"address","indexed":true,"internalType":"address"}],"anonymous":false},{"type":"event","name":"ReportProcessed","inputs":[{"name":"receiver","type":"address","indexed":true,"internalType":"address"},{"name":"workflowExecutionId","type":"bytes32","indexed":true,"internalType":"bytes32"},{"name":"reportId","type":"bytes2","indexed":true,"internalType":"bytes2"},{"name":"result","type":"bool","indexed":false,"internalType":"bool"}],"anonymous":false},{"type":"error","name":"AlreadyAttempted","inputs":[{"name":"transmissionId","type":"bytes32","internalType":"bytes32"}]},{"type":"error","name":"InsufficientGasForRouting","inputs":[{"name":"transmissionId","type":"bytes32","internalType":"bytes32"}]},{"type":"error","name":"InvalidReport","inputs":[]},{"type":"error","name":"UnauthorizedForwarder","inputs":[]}],"bytecode":{"object":"0x60808060405234610089573315610047575f80546001600160a01b031916331781553081526002602052604090819020805460ff191660011790555161120f908161008e8239f35b62461bcd60e51b815260206004820152601860248201527f43616e6e6f7420736574206f776e657220746f207a65726f00000000000000006044820152606490fd5b5f80fdfe60806040526004361015610011575f80fd5b5f3560e01c806311289565146100d4578063181f5a77146100cf578063233fd52d146100ca578063272cbd93146100c5578063354bdd66146100c05780634d93172d146100bb5780635c41d2fe146100b657806379ba5097146100b15780638864b864146100ac5780638da5cb5b146100a7578063abcef554146100a25763f2fde38b1461009d575f80fd5b610bd0565b610b68565b610b18565b610adb565b610997565b6108e7565b61083a565b610819565b6106c6565b61039f565b6102d1565b610174565b6004359073ffffffffffffffffffffffffffffffffffffffff821682036100fc57565b5f80fd5b6024359073ffffffffffffffffffffffffffffffffffffffff821682036100fc57565b6044359073ffffffffffffffffffffffffffffffffffffffff821682036100fc57565b9181601f840112156100fc5782359167ffffffffffffffff83116100fc57602083818601950101116100fc57565b346100fc5760807ffffffffffffffffffffffffffffffffffffffffffffffffffffffffffffffffc3601126100fc576101ab6100d9565b67ffffffffffffffff6024358181116100fc576101cc903690600401610146565b916044358181116100fc576101e5903690600401610146565b50506064358181116100fc57366023820112156100fc5780600401359182116100fc57602490369260051b0101116100fc5761022092610e79565b005b7f4e487b71000000000000000000000000000000000000000000000000000000005f52604160045260245ffd5b6040810190811067ffffffffffffffff82111761026b57604052565b610222565b90601f7fffffffffffffffffffffffffffffffffffffffffffffffffffffffffffffffe0910116810190811067ffffffffffffffff82111761026b57604052565b6040519060c0820182811067ffffffffffffffff82111761026b57604052565b346100fc575f7ffffffffffffffffffffffffffffffffffffffffffffffffffffffffffffffffc3601126100fc57604080519061030d8261024f565b601f82526020907f4d6f636b4b657973746f6e65466f7277617264657220312e302e302d64657600602084015260405191602083528351918260208501525f5b83811061038c57846040817fffffffffffffffffffffffffffffffffffffffffffffffffffffffffffffffe0601f885f85828601015201168101030190f35b858101830151858201830152820161034d565b346100fc5760a07ffffffffffffffffffffffffffffffffffffffffffffffffffffffffffffffffc3601126100fc576004356103d9610100565b906103e2610123565b9167ffffffffffffffff916064358381116100fc57610405903690600401610146565b9290936084359081116100fc576105a195610546955f809461053161058f9861050561043685983690600401610146565b90948b875260036020526104896040882091829073ffffffffffffffffffffffffffffffffffffffff167fffffffffffffffffffffffff0000000000000000000000000000000000000000825416179055565b5a75ffffffffffffffffffffffffffffffffffffffffffff7fffffffffffffffffffff0000000000000000000000000000000000000000000083549260b01b16911617905560405194859360208501987f805f2132000000000000000000000000000000000000000000000000000000008a526024860161102e565b037fffffffffffffffffffffffffffffffffffffffffffffffffffffffffffffffe08101835282610270565b51925af19283915f52600360205260405f2090565b907fffffffffffffffffffff00ffffffffffffffffffffffffffffffffffffffffff75ff000000000000000000000000000000000000000000835492151560a81b169116179055565b60405190151581529081906020820190565b0390f35b7ffffffffffffffffffffffffffffffffffffffffffffffffffffffffffffffffc60609101126100fc5760043573ffffffffffffffffffffffffffffffffffffffff811681036100fc5790602435906044357fffff000000000000000000000000000000000000000000000000000000000000811681036100fc5790565b919060c08301928151815260208201519160048310156106995760a0809161069794602085015273ffffffffffffffffffffffffffffffffffffffff6040820151166040850152606081015115156060850152608081015115156080850152015191019069ffffffffffffffffffff169052565b565b7f4e487b71000000000000000000000000000000000000000000000000000000005f52602160045260245ffd5b346100fc576105a16106e96106da366105a5565b916106e3611055565b50611102565b6107d8610706610701835f52600360205260405f2090565b611096565b6107c5610727825173ffffffffffffffffffffffffffffffffffffffff1690565b9173ffffffffffffffffffffffffffffffffffffffff83166107e4576107bc5f915b6107b3610763606083015169ffffffffffffffffffff1690565b9561079661078160406107796020870151151590565b950151151590565b9561078a6102b1565b9a8b5260208b016110f6565b73ffffffffffffffffffffffffffffffffffffffff166040890152565b15156060870152565b15156080850152565b69ffffffffffffffffffff1660a0830152565b60405191829182610623565b6020810151156107f9576107bc600291610749565b60408101511561080f576107bc60015b91610749565b6107bc6003610809565b346100fc57602061083261082c366105a5565b91611102565b604051908152f35b346100fc5760207ffffffffffffffffffffffffffffffffffffffffffffffffffffffffffffffffc3601126100fc5773ffffffffffffffffffffffffffffffffffffffff6108866100d9565b61088e611184565b16805f52600260205260405f207fffffffffffffffffffffffffffffffffffffffffffffffffffffffffffffff0081541690557fb96d15bf9258c7b8df062753a6a262864611fc7b060a5ee2e57e79b85f898d385f80a2005b346100fc5760207ffffffffffffffffffffffffffffffffffffffffffffffffffffffffffffffffc3601126100fc5773ffffffffffffffffffffffffffffffffffffffff6109336100d9565b61093b611184565b16805f52600260205260405f2060017fffffffffffffffffffffffffffffffffffffffffffffffffffffffffffffff008254161790557f0ea0ce2c048ff45a4a95f2947879de3fb94abec2f152190400cab2d1272a68e75f80a2005b346100fc575f7ffffffffffffffffffffffffffffffffffffffffffffffffffffffffffffffffc3601126100fc5773ffffffffffffffffffffffffffffffffffffffff80600154163303610a7d575f5473ffffffffffffffffffffffffffffffffffffffff165f80547fffffffffffffffffffffffff0000000000000000000000000000000000000000163317905590610a547fffffffffffffffffffffffff000000000000000000000000000000000000000060015416600155565b3391167f8be0079c531659141344cd1fd0a4f28419497f9722a3daafe3b4186f6b6457e05f80a3005b60646040517f08c379a000000000000000000000000000000000000000000000000000000000815260206004820152601660248201527f4d7573742062652070726f706f736564206f776e6572000000000000000000006044820152fd5b346100fc57610aec61082c366105a5565b5f526003602052602073ffffffffffffffffffffffffffffffffffffffff60405f205416604051908152f35b346100fc575f7ffffffffffffffffffffffffffffffffffffffffffffffffffffffffffffffffc3601126100fc57602073ffffffffffffffffffffffffffffffffffffffff5f5416604051908152f35b346100fc5760207ffffffffffffffffffffffffffffffffffffffffffffffffffffffffffffffffc3601126100fc5773ffffffffffffffffffffffffffffffffffffffff610bb46100d9565b165f526002602052602060ff60405f2054166040519015158152f35b346100fc5760207ffffffffffffffffffffffffffffffffffffffffffffffffffffffffffffffffc3601126100fc5773ffffffffffffffffffffffffffffffffffffffff610c1c6100d9565b610c24611184565b16338114610cb657807fffffffffffffffffffffffff00000000000000000000000000000000000000006001541617600155610c90610c775f5473ffffffffffffffffffffffffffffffffffffffff1690565b73ffffffffffffffffffffffffffffffffffffffff1690565b7fed8889f560326eb138920d842192f0eb3dd22b4f139c87a2c57538e05bae12785f80a3005b60646040517f08c379a000000000000000000000000000000000000000000000000000000000815260206004820152601760248201527f43616e6e6f74207472616e7366657220746f2073656c660000000000000000006044820152fd5b92919267ffffffffffffffff821161026b5760405191610d5c60207fffffffffffffffffffffffffffffffffffffffffffffffffffffffffffffffe0601f8401160184610270565b8294818452818301116100fc578281602093845f960137010152565b90606d116100fc57602d0190604090565b9092919283606d116100fc5783116100fc57606d01917fffffffffffffffffffffffffffffffffffffffffffffffffffffffffffffff930190565b908160209103126100fc575180151581036100fc5790565b601f82602094937fffffffffffffffffffffffffffffffffffffffffffffffffffffffffffffffe093818652868601375f8582860101520116010190565b959391610e5d93610e6b989692885273ffffffffffffffffffffffffffffffffffffffff809216602089015216604087015260a0606087015260a0860191610ddc565b926080818503910152610ddc565b90565b6040513d5f823e3d90fd5b9190606d821061100457826020610eaa610e94368686610d14565b602181015191608b604583015160c01c92015190565b9391959050610f0b610ebd858885611102565b91610ed481610ecc818a610d78565b939099610d89565b9160405198899687967f233fd52d000000000000000000000000000000000000000000000000000000008852339060048901610e1a565b03815f305af1918215610fff575f92610f8a575b5060405191151582527fffff000000000000000000000000000000000000000000000000000000000000169273ffffffffffffffffffffffffffffffffffffffff16907f3617b009e9785c42daebadb6d3fb553243a4bf586d07ea72d65d80013ce116b590602090a4565b7f3617b009e9785c42daebadb6d3fb553243a4bf586d07ea72d65d80013ce116b5919250610ff07fffff0000000000000000000000000000000000000000000000000000000000009160203d602011610ff8575b610fe88183610270565b810190610dc4565b929150610f1f565b503d610fde565b610e6e565b60046040517fb55ac754000000000000000000000000000000000000000000000000000000008152fd5b929061104790610e6b9593604086526040860191610ddc565b926020818503910152610ddc565b6040519060c0820182811067ffffffffffffffff82111761026b576040525f60a0838281528260208201528260408201528260608201528260808201520152565b906040516080810181811067ffffffffffffffff82111761026b57604052606081935473ffffffffffffffffffffffffffffffffffffffff8116835260ff8160a01c161515602084015260ff8160a81c161515604084015260b01c910152565b60048210156106995752565b917fffff00000000000000000000000000000000000000000000000000000000000090604051927fffffffffffffffffffffffffffffffffffffffff000000000000000000000000602085019560601b1685526034840152166054820152603681526060810181811067ffffffffffffffff82111761026b5760405251902090565b73ffffffffffffffffffffffffffffffffffffffff5f541633036111a457565b60646040517f08c379a000000000000000000000000000000000000000000000000000000000815260206004820152601660248201527f4f6e6c792063616c6c61626c65206279206f776e6572000000000000000000006044820152fdfea164736f6c6343000818000a","linkReferences":{}},"methodIdentifiers":{"acceptOwnership()":"79ba5097","addForwarder(address)":"5c41d2fe","getTransmissionId(address,bytes32,bytes2)":"354bdd66","getTransmissionInfo(address,bytes32,bytes2)":"272cbd93","getTransmitter(address,bytes32,bytes2)":"8864b864","isForwarder(address)":"abcef554","owner()":"8da5cb5b","removeForwarder(address)":"4d93172d","report(address,bytes,bytes,bytes[])":"11289565","route(bytes32,address,address,bytes,bytes)":"233fd52d","transferOwnership(address)":"f2fde38b","typeAndVersion()":"181f5a77"},"id":35}